{"abi":[{"type":"constructor","inputs":[],"stateMutability":"nonpayable"},{"type":"function","name":"allowance","inputs":[{"name":"owner","type":"address","internalType":"address"},{"name":"spender","type":"address","internalType":"address"}],"outputs":[{"name":"","type":"uint256","internalType":"uint256"}],"stateMutability":"view"},{"type":"function","name":"approve","inputs":[{"name":"spender","type":"address","internalType":"address"},{"name":"value","type":"uint256","internalType":"uint256"}],"outputs":[{"name":"","type":"bool","internalType":"bool"}],"stateMutability":"nonpayable"},{"type":"function","name":"balanceOf","inputs":[{"name":"account","type":"address","internalType":"address"}],"outputs":[{"name":"","type":"uint256","internalType":"uint256"}],"stateMutability":"view"},{"type":"function","name":"burn","inputs":[{"name":"_amount","type":"uint256","internalType":"uint256"}],"outputs":[],"stateMutability":"nonpayable"},{"type":"function","name":"burnFrom","inputs":[{"name":"account","type":"address","internalType":"address"},{"name":"value","type":"uint256","internalType":"uint256"}],"outputs":[],"stateMutability":"nonpayable"},{"type":"function","name":"decimals","inputs":[],"outputs":[{"name":"","type":"uint8","internalType":"uint8"}],"stateMutability":"view"},{"type":"function","name":"mint","inputs":[{"name":"_to","type":"address","internalType":"address"},{"name":"_amount","type":"uint256","internalType":"uint256"}],"outputs":[{"name":"","type":"bool","internalType":"bool"}],"stateMutability":"nonpayable"},{"type":"function","name":"name","inputs":[],"outputs":[{"name":"","type":"string","internalType":"string"}],"stateMutability":"view"},{"type":"function","name":"owner","inputs":[],"outputs":[{"name":"","type":"address","internalType":"address"}],"stateMutability":"view"},{"type":"function","name":"renounceOwnership","inputs":[],"outputs":[],"stateMutability":"nonpayable"},{"type":"function","name":"symbol","inputs":[],"outputs":[{"name":"","type":"string","internalType":"string"}],"stateMutability":"view"},{"type":"function","name":"totalSupply","inputs":[],"outputs":[{"name":"","type":"uint256","internalType":"uint256"}],"stateMutability":"view"},{"type":"function","name":"transfer","inputs":[{"name":"to","type":"address","internalType":"address"},{"name":"value","type":"uint256","internalType":"uint256"}],"outputs":[{"name":"","type":"bool","internalType":"bool"}],"stateMutability":"nonpayable"},{"type":"function","name":"transferFrom","inputs":[{"name":"from","type":"address","internalType":"address"},{"name":"to","type":"address","internalType":"address"},{"name":"value","type":"uint256","internalType":"uint256"}],"outputs":[{"name":"","type":"bool","internalType":"bool"}],"stateMutability":"nonpayable"},{"type":"function","name":"transferOwnership","inputs":[{"name":"newOwner","type":"address","internalType":"address"}],"outputs":[],"stateMutability":"nonpayable"},{"type":"event","name":"Approval","inputs":[{"name":"owner","type":"address","indexed":true,"internalType":"address"},{"name":"spender","type":"address","indexed":true,"internalType":"address"},{"name":"value","type":"uint256","indexed":false,"internalType":"uint256"}],"anonymous":false},{"type":"event","name":"OwnershipTransferred","inputs":[{"name":"previousOwner","type":"address","indexed":true,"internalType":"address"},{"name":"newOwner","type":"address","indexed":true,"internalType":"address"}],"anonymous":false},{"type":"event","name":"Transfer","inputs":[{"name":"from","type":"address","indexed":true,"internalType":"address"},{"name":"to","type":"address","indexed":true,"internalType":"address"},{"name":"value","type":"uint256","indexed":false,"internalType":"uint256"}],"anonymous":false},{"type":"error","name":"ERC20InsufficientAllowance","inputs":[{"name":"spender","type":"address","internalType":"address"},{"name":"allowance","type":"uint256","internalType":"uint256"},{"name":"needed","type":"uint256","internalType":"uint256"}]},{"type":"error","name":"ERC20InsufficientBalance","inputs":[{"name":"sender","type":"address","internalType":"address"},{"name":"balance","type":"uint256","internalType":"uint256"},{"name":"needed","type":"uint256","internalType":"uint256"}]},{"type":"error","name":"ERC20InvalidApprover","inputs":[{"name":"approver","type":"address","internalType":"address"}]},{"type":"error","name":"ERC20InvalidReceiver","inputs":[{"name":"receiver","type":"address","internalType":"address"}]},{"type":"error","name":"ERC20InvalidSender","inputs":[{"name":"sender","type":"address","internalType":"address"}]},{"type":"error","name":"ERC20InvalidSpender","inputs":[{"name":"spender","type":"address","internalType":"address"}]},{"type":"error","name":"OwnableInvalidOwner","inputs":[{"name":"owner","type":"address","internalType":"address"}]},{"type":"error","name":"OwnableUnauthorizedAccount","inputs":[{"name":"account","type":"address","internalType":"address"}]},{"type":"error","name":"TTCStableCoin__BurnAmountExceedsBalance","inputs":[]},{"type":"error","name":"TTCStableCoin__MustBeMoreThanZero","inputs":[]},{"type":"error","name":"TTCStableCoin__NotZeroAddress","inputs":[]}],"bytecode":{"object":"0x608060405234801561001057600080fd5b50336040518060400160405280600d81526020016c2a2a21a9ba30b13632a1b7b4b760991b8152506040518060400160405280600381526020016254544360e81b815250816003908161006391906101a3565b50600461007082826101a3565b5050506001600160a01b0381166100a157604051631e4fbdf760e01b81526000600482015260240160405180910390fd5b6100aa816100b0565b50610262565b600580546001600160a01b038381166001600160a01b0319831681179093556040519116919082907f8be0079c531659141344cd1fd0a4f28419497f9722a3daafe3b4186f6b6457e090600090a35050565b634e487b7160e01b600052604160045260246000fd5b600181811c9082168061012c57607f821691505b60208210810361014c57634e487b7160e01b600052602260045260246000fd5b50919050565b601f82111561019e576000816000526020600020601f850160051c8101602086101561017b5750805b601f850160051c820191505b8181101561019a57828155600101610187565b5050505b505050565b81516001600160401b038111156101bc576101bc610102565b6101d0816101ca8454610118565b84610152565b602080601f83116001811461020557600084156101ed5750858301515b600019600386901b1c1916600185901b17855561019a565b600085815260208120601f198616915b8281101561023457888601518255948401946001909101908401610215565b50858210156102525787850151600019600388901b60f8161c191681555b5050505050600190811b01905550565b610a32806102716000396000f3fe608060405234801561001057600080fd5b50600436106100f55760003560e01c806370a082311161009757806395d89b411161006657806395d89b41146101f6578063a9059cbb146101fe578063dd62ed3e14610211578063f2fde38b1461024a57600080fd5b806370a0823114610197578063715018a6146101c057806379cc6790146101c85780638da5cb5b146101db57600080fd5b806323b872dd116100d357806323b872dd1461014d578063313ce5671461016057806340c10f191461016f57806342966c681461018257600080fd5b806306fdde03146100fa578063095ea7b31461011857806318160ddd1461013b575b600080fd5b61010261025d565b60405161010f9190610862565b60405180910390f35b61012b6101263660046108cd565b6102ef565b604051901515815260200161010f565b6002545b60405190815260200161010f565b61012b61015b3660046108f7565b610309565b6040516012815260200161010f565b61012b61017d3660046108cd565b61032d565b610195610190366004610933565b610392565b005b61013f6101a536600461094c565b6001600160a01b031660009081526020819052604090205490565b6101956103f6565b6101956101d63660046108cd565b61040a565b6005546040516001600160a01b03909116815260200161010f565b61010261041f565b61012b61020c3660046108cd565b61042e565b61013f61021f36600461096e565b6001600160a01b03918216600090815260016020908152604080832093909416825291909152205490565b61019561025836600461094c565b61043c565b60606003805461026c906109a1565b80601f0160208091040260200160405190810160405280929190818152602001828054610298906109a1565b80156102e55780601f106102ba576101008083540402835291602001916102e5565b820191906000526020600020905b8154815290600101906020018083116102c857829003601f168201915b5050505050905090565b6000336102fd81858561047f565b60019150505b92915050565b600033610317858285610491565b61032285858561050f565b506001949350505050565b600061033761056e565b6001600160a01b03831661035e57604051635ade8c2960e01b815260040160405180910390fd5b6000821161037f57604051632f94730160e21b815260040160405180910390fd5b610389838361059b565b50600192915050565b61039a61056e565b33600090815260208190526040902054816103c857604051632f94730160e21b815260040160405180910390fd5b818110156103e957604051631dd3766b60e21b815260040160405180910390fd5b6103f2826105d1565b5050565b6103fe61056e565b61040860006105db565b565b610415823383610491565b6103f2828261062d565b60606004805461026c906109a1565b6000336102fd81858561050f565b61044461056e565b6001600160a01b03811661047357604051631e4fbdf760e01b8152600060048201526024015b60405180910390fd5b61047c816105db565b50565b61048c8383836001610663565b505050565b6001600160a01b03838116600090815260016020908152604080832093861683529290522054600019811461050957818110156104fa57604051637dc7a0d960e11b81526001600160a01b0384166004820152602481018290526044810183905260640161046a565b61050984848484036000610663565b50505050565b6001600160a01b03831661053957604051634b637e8f60e11b81526000600482015260240161046a565b6001600160a01b0382166105635760405163ec442f0560e01b81526000600482015260240161046a565b61048c838383610738565b6005546001600160a01b031633146104085760405163118cdaa760e01b815233600482015260240161046a565b6001600160a01b0382166105c55760405163ec442f0560e01b81526000600482015260240161046a565b6103f260008383610738565b61047c338261062d565b600580546001600160a01b038381166001600160a01b0319831681179093556040519116919082907f8be0079c531659141344cd1fd0a4f28419497f9722a3daafe3b4186f6b6457e090600090a35050565b6001600160a01b03821661065757604051634b637e8f60e11b81526000600482015260240161046a565b6103f282600083610738565b6001600160a01b03841661068d5760405163e602df0560e01b81526000600482015260240161046a565b6001600160a01b0383166106b757604051634a1406b160e11b81526000600482015260240161046a565b6001600160a01b038085166000908152600160209081526040808320938716835292905220829055801561050957826001600160a01b0316846001600160a01b03167f8c5be1e5ebec7d5bd14f71427d1e84f3dd0314c0f7b2291e5b200ac8c7c3b9258460405161072a91815260200190565b60405180910390a350505050565b6001600160a01b03831661076357806002600082825461075891906109db565b909155506107d59050565b6001600160a01b038316600090815260208190526040902054818110156107b65760405163391434e360e21b81526001600160a01b0385166004820152602481018290526044810183905260640161046a565b6001600160a01b03841660009081526020819052604090209082900390555b6001600160a01b0382166107f157600280548290039055610810565b6001600160a01b03821660009081526020819052604090208054820190555b816001600160a01b0316836001600160a01b03167fddf252ad1be2c89b69c2b068fc378daa952ba7f163c4a11628f55a4df523b3ef8360405161085591815260200190565b60405180910390a3505050565b60006020808352835180602085015260005b8181101561089057858101830151858201604001528201610874565b506000604082860101526040601f19601f8301168501019250505092915050565b80356001600160a01b03811681146108c857600080fd5b919050565b600080604083850312156108e057600080fd5b6108e9836108b1565b946020939093013593505050565b60008060006060848603121561090c57600080fd5b610915846108b1565b9250610923602085016108b1565b9150604084013590509250925092565b60006020828403121561094557600080fd5b5035919050565b60006020828403121561095e57600080fd5b610967826108b1565b9392505050565b6000806040838503121561098157600080fd5b61098a836108b1565b9150610998602084016108b1565b90509250929050565b600181811c908216806109b557607f821691505b6020821081036109d557634e487b7160e01b600052602260045260246000fd5b50919050565b8082018082111561030357634e487b7160e01b600052601160045260246000fdfea2646970667358221220fd021aac6c0734d6ebad5f2d7a031760e0a2d624b10fa7fc598b8fabdfbc961564736f6c63430008190033","linkReferences":{}},"methodIdentifiers":{"allowance(address,address)":"dd62ed3e","approve(address,uint256)":"095ea7b3","balanceOf(address)":"70a08231","burn(uint256)":"42966c68","burnFrom(address,uint256)":"79cc6790","decimals()":"313ce567","mint(address,uint256)":"40c10f19","name()":"06fdde03","owner()":"8da5cb5b","renounceOwnership()":"715018a6","symbol()":"95d89b41","totalSupply()":"18160ddd","transfer(address,uint256)":"a9059cbb","transferFrom(address,address,uint256)":"23b872dd","transferOwnership(address)":"f2fde38b"},"id":10}