{"abi":[{"type":"constructor","inputs":[{"name":"tokenAddresses","type":"address[]","internalType":"address[]"},{"name":"priceFeedAddresses","type":"address[]","internalType":"address[]"},{"name":"ttcAddress","type":"address","internalType":"address"}],"stateMutability":"nonpayable"},{"type":"function","name":"burnTTC","inputs":[],"outputs":[],"stateMutability":"nonpayable"},{"type":"function","name":"depositCollateral","inputs":[{"name":"tokenCollateralAddress","type":"address","internalType":"address"},{"name":"amountCollateral","type":"uint256","internalType":"uint256"}],"outputs":[],"stateMutability":"nonpayable"},{"type":"function","name":"depositCollateralAndMintTTC","inputs":[],"outputs":[],"stateMutability":"nonpayable"},{"type":"function","name":"getAccountCollateralValue","inputs":[{"name":"user","type":"address","internalType":"address"}],"outputs":[{"name":"totalCollateralValueInUSD","type":"uint256","internalType":"uint256"}],"stateMutability":"view"},{"type":"function","name":"getHealthFactor","inputs":[],"outputs":[],"stateMutability":"view"},{"type":"function","name":"getUSDValue","inputs":[{"name":"token","type":"address","internalType":"address"},{"name":"amount","type":"uint256","internalType":"uint256"}],"outputs":[{"name":"","type":"uint256","internalType":"uint256"}],"stateMutability":"view"},{"type":"function","name":"liquidate","inputs":[],"outputs":[],"stateMutability":"nonpayable"},{"type":"function","name":"mintTTC","inputs":[{"name":"amountTTCToMint","type":"uint256","internalType":"uint256"}],"outputs":[],"stateMutability":"nonpayable"},{"type":"function","name":"redeemCollateral","inputs":[],"outputs":[],"stateMutability":"nonpayable"},{"type":"function","name":"redeemCollateralForTTC","inputs":[],"outputs":[],"stateMutability":"nonpayable"},{"type":"event","name":"CollateralDeposited","inputs":[{"name":"user","type":"address","indexed":true,"internalType":"address"},{"name":"token","type":"address","indexed":true,"internalType":"address"},{"name":"amount","type":"uint256","indexed":true,"internalType":"uint256"}],"anonymous":false},{"type":"error","name":"ReentrancyGuardReentrantCall","inputs":[]},{"type":"error","name":"TTCEngine__BreaksHealthFactor","inputs":[{"name":"healthFactor","type":"uint256","internalType":"uint256"}]},{"type":"error","name":"TTCEngine__NeedsMoreThanZero","inputs":[]},{"type":"error","name":"TTCEngine__NotAllowedToken","inputs":[]},{"type":"error","name":"TTCEngine__TokenAddressesAndPriceFeedAddressesMustBeSameLength","inputs":[]},{"type":"error","name":"TTCEngine__TransferFailed","inputs":[]}],"bytecode":{"object":"0x60a060405234801561001057600080fd5b5060405161098138038061098183398101604081905261002f91610222565b600160005581518351146100565760405163e195a48d60e01b815260040160405180910390fd5b60005b83518110156101375782818151811061007457610074610295565b60200260200101516001600086848151811061009257610092610295565b60200260200101516001600160a01b03166001600160a01b0316815260200190815260200160002060006101000a8154816001600160a01b0302191690836001600160a01b0316021790555060048482815181106100f2576100f2610295565b60209081029190910181015182546001808201855560009485529290932090920180546001600160a01b0319166001600160a01b039093169290921790915501610059565b506001600160a01b0316608052506102ab9050565b634e487b7160e01b600052604160045260246000fd5b80516001600160a01b038116811461017957600080fd5b919050565b600082601f83011261018f57600080fd5b815160206001600160401b03808311156101ab576101ab61014c565b8260051b604051601f19603f830116810181811084821117156101d0576101d061014c565b60405293845260208187018101949081019250878511156101f057600080fd5b6020870191505b848210156102175761020882610162565b835291830191908301906101f7565b979650505050505050565b60008060006060848603121561023757600080fd5b83516001600160401b038082111561024e57600080fd5b61025a8783880161017e565b9450602086015191508082111561027057600080fd5b5061027d8682870161017e565b92505061028c60408501610162565b90509250925092565b634e487b7160e01b600052603260045260246000fd5b6080516106be6102c3600039600050506106be6000f3fe608060405234801561001057600080fd5b506004361061009e5760003560e01c8063a5d5db0c11610066578063a5d5db0c146100ca578063a5f352b7146100a3578063a6534470146100a3578063f458fdb4146100dd578063fa76dcf2146100f057600080fd5b806328a07025146100a35780632af634a0146100a3578063319be5e2146100a35780637d1a4450146100a557806386f22567146100a3575b600080fd5b005b6100b86100b336600461051f565b610103565b60405190815260200160405180910390f35b6100a36100d8366004610541565b610180565b6100a36100eb36600461056b565b6102ff565b6100b86100fe366004610541565b610365565b6000805b60045481101561017a5760006004828154811061012657610126610584565b60009182526020808320909101546001600160a01b038781168452600283526040808520919092168085529252909120549091506101648282610365565b61016e90856105b0565b93505050600101610107565b50919050565b80806000036101a25760405163e609308f60e01b815260040160405180910390fd5b6001600160a01b038084166000908152600160205260409020548491166101dc5760405163174c943560e11b815260040160405180910390fd5b6101e4610425565b3360009081526002602090815260408083206001600160a01b0388168452909152812080548592906102179084906105b0565b909155505060405183906001600160a01b0386169033907ff1c0dd7e9b98bbff859029005ef89b127af049cd18df1a8d79f0b7e019911e5690600090a46040516323b872dd60e01b8152336004820152306024820152604481018490526000906001600160a01b038616906323b872dd906064016020604051808303816000875af11580156102aa573d6000803e3d6000fd5b505050506040513d601f19601f820116820180604052508101906102ce91906105c3565b9050806102ee5760405163d4049c3560e01b815260040160405180910390fd5b506102f96001600055565b50505050565b80806000036103215760405163e609308f60e01b815260040160405180910390fd5b610329610425565b33600090815260036020526040812080548492906103489084906105b0565b9091555061035790503361044f565b6103616001600055565b5050565b6001600160a01b03808316600090815260016020526040808220548151633fabe5a360e21b81529151929316918391839163feaf968c9160048082019260a0929091908290030181865afa1580156103c1573d6000803e3d6000fd5b505050506040513d601f19601f820116820180604052508101906103e591906105ff565b505050915050670de0b6b3a7640000846402540be40083610406919061064f565b610410919061064f565b61041a9190610666565b925050505b92915050565b60026000540361044857604051633ee5aeb560e01b815260040160405180910390fd5b6002600055565b600061045a82610485565b9050600181101561036157604051631378332560e31b81526004810182905260240160405180910390fd5b6000806000610493846104d9565b9092509050600060646104a760328461064f565b6104b19190610666565b9050826104c6670de0b6b3a76400008361064f565b6104d09190610666565b95945050505050565b6001600160a01b038116600090815260036020526040812054906104fc83610103565b9050915091565b80356001600160a01b038116811461051a57600080fd5b919050565b60006020828403121561053157600080fd5b61053a82610503565b9392505050565b6000806040838503121561055457600080fd5b61055d83610503565b946020939093013593505050565b60006020828403121561057d57600080fd5b5035919050565b634e487b7160e01b600052603260045260246000fd5b634e487b7160e01b600052601160045260246000fd5b8082018082111561041f5761041f61059a565b6000602082840312156105d557600080fd5b8151801515811461053a57600080fd5b805169ffffffffffffffffffff8116811461051a57600080fd5b600080600080600060a0868803121561061757600080fd5b610620866105e5565b9450602086015193506040860151925060608601519150610643608087016105e5565b90509295509295909350565b808202811582820484141761041f5761041f61059a565b60008261068357634e487b7160e01b600052601260045260246000fd5b50049056fea2646970667358221220916f6d78f7c4a60836d800c4a8e7f23ca87aad40e5bb90da28b53375be7f6ff364736f6c63430008190033","linkReferences":{}},"methodIdentifiers":{"burnTTC()":"319be5e2","depositCollateral(address,uint256)":"a5d5db0c","depositCollateralAndMintTTC()":"2af634a0","getAccountCollateralValue(address)":"7d1a4450","getHealthFactor()":"a5f352b7","getUSDValue(address,uint256)":"fa76dcf2","liquidate()":"28a07025","mintTTC(uint256)":"f458fdb4","redeemCollateral()":"a6534470","redeemCollateralForTTC()":"86f22567"},"id":9}