{"abi":[{"type":"constructor","inputs":[{"name":"tokenAddresses","type":"address[]","internalType":"address[]"},{"name":"priceFeedAddresses","type":"address[]","internalType":"address[]"},{"name":"ttcAddress","type":"address","internalType":"address"}],"stateMutability":"nonpayable"},{"type":"function","name":"burnTTC","inputs":[{"name":"amount","type":"uint256","internalType":"uint256"}],"outputs":[],"stateMutability":"nonpayable"},{"type":"function","name":"calculateHealthFactor","inputs":[{"name":"totalTtcMinted","type":"uint256","internalType":"uint256"},{"name":"collateralValueInUsd","type":"uint256","internalType":"uint256"}],"outputs":[{"name":"","type":"uint256","internalType":"uint256"}],"stateMutability":"pure"},{"type":"function","name":"depositCollateral","inputs":[{"name":"tokenCollateralAddress","type":"address","internalType":"address"},{"name":"amountCollateral","type":"uint256","internalType":"uint256"}],"outputs":[],"stateMutability":"nonpayable"},{"type":"function","name":"depositCollateralAndMintTTC","inputs":[{"name":"tokenCollateralAddress","type":"address","internalType":"address"},{"name":"amountCollateral","type":"uint256","internalType":"uint256"},{"name":"amountTTCToMint","type":"uint256","internalType":"uint256"}],"outputs":[],"stateMutability":"nonpayable"},{"type":"function","name":"getAccountCollateralValue","inputs":[{"name":"user","type":"address","internalType":"address"}],"outputs":[{"name":"totalCollateralValueInUSD","type":"uint256","internalType":"uint256"}],"stateMutability":"view"},{"type":"function","name":"getAccountInfo","inputs":[{"name":"user","type":"address","internalType":"address"}],"outputs":[{"name":"totalTtcMinted","type":"uint256","internalType":"uint256"},{"name":"collateralValueInUsd","type":"uint256","internalType":"uint256"}],"stateMutability":"view"},{"type":"function","name":"getAdditionalFeedPrecision","inputs":[],"outputs":[{"name":"","type":"uint256","internalType":"uint256"}],"stateMutability":"pure"},{"type":"function","name":"getCollateralBalanceOfUser","inputs":[{"name":"user","type":"address","internalType":"address"},{"name":"token","type":"address","internalType":"address"}],"outputs":[{"name":"","type":"uint256","internalType":"uint256"}],"stateMutability":"view"},{"type":"function","name":"getCollateralTokenPriceFeed","inputs":[{"name":"token","type":"address","internalType":"address"}],"outputs":[{"name":"","type":"address","internalType":"address"}],"stateMutability":"view"},{"type":"function","name":"getCollateralTokens","inputs":[],"outputs":[{"name":"","type":"address[]","internalType":"address[]"}],"stateMutability":"view"},{"type":"function","name":"getHealthFactor","inputs":[],"outputs":[],"stateMutability":"view"},{"type":"function","name":"getHealthFactor","inputs":[{"name":"user","type":"address","internalType":"address"}],"outputs":[{"name":"","type":"uint256","internalType":"uint256"}],"stateMutability":"view"},{"type":"function","name":"getLiquidationBonus","inputs":[],"outputs":[{"name":"","type":"uint256","internalType":"uint256"}],"stateMutability":"pure"},{"type":"function","name":"getLiquidationPrecision","inputs":[],"outputs":[{"name":"","type":"uint256","internalType":"uint256"}],"stateMutability":"pure"},{"type":"function","name":"getLiquidationThreshold","inputs":[],"outputs":[{"name":"","type":"uint256","internalType":"uint256"}],"stateMutability":"pure"},{"type":"function","name":"getMinHealthFactor","inputs":[],"outputs":[{"name":"","type":"uint256","internalType":"uint256"}],"stateMutability":"pure"},{"type":"function","name":"getPrecision","inputs":[],"outputs":[{"name":"","type":"uint256","internalType":"uint256"}],"stateMutability":"pure"},{"type":"function","name":"getTokenAmountFromUsd","inputs":[{"name":"token","type":"address","internalType":"address"},{"name":"usdAmountInWei","type":"uint256","internalType":"uint256"}],"outputs":[{"name":"","type":"uint256","internalType":"uint256"}],"stateMutability":"view"},{"type":"function","name":"getTtc","inputs":[],"outputs":[{"name":"","type":"address","internalType":"address"}],"stateMutability":"view"},{"type":"function","name":"getUsdValue","inputs":[{"name":"token","type":"address","internalType":"address"},{"name":"amount","type":"uint256","internalType":"uint256"}],"outputs":[{"name":"","type":"uint256","internalType":"uint256"}],"stateMutability":"view"},{"type":"function","name":"liquidate","inputs":[{"name":"collateral","type":"address","internalType":"address"},{"name":"user","type":"address","internalType":"address"},{"name":"debtToCover","type":"uint256","internalType":"uint256"}],"outputs":[],"stateMutability":"nonpayable"},{"type":"function","name":"mintTTC","inputs":[{"name":"amountTTCToMint","type":"uint256","internalType":"uint256"}],"outputs":[],"stateMutability":"nonpayable"},{"type":"function","name":"redeemCollateral","inputs":[{"name":"tokenCollateralAddress","type":"address","internalType":"address"},{"name":"amountCollateral","type":"uint256","internalType":"uint256"}],"outputs":[],"stateMutability":"nonpayable"},{"type":"function","name":"redeemCollateralForTTC","inputs":[{"name":"tokenCollateralAddress","type":"address","internalType":"address"},{"name":"amountCollateral","type":"uint256","internalType":"uint256"},{"name":"amountTTCToBurn","type":"uint256","internalType":"uint256"}],"outputs":[],"stateMutability":"nonpayable"},{"type":"event","name":"CollateralDeposited","inputs":[{"name":"user","type":"address","indexed":true,"internalType":"address"},{"name":"token","type":"address","indexed":true,"internalType":"address"},{"name":"amount","type":"uint256","indexed":true,"internalType":"uint256"}],"anonymous":false},{"type":"event","name":"CollateralRedeemed","inputs":[{"name":"redeemedFrom","type":"address","indexed":true,"internalType":"address"},{"name":"redeemedTo","type":"address","indexed":true,"internalType":"address"},{"name":"token","type":"address","indexed":true,"internalType":"address"},{"name":"amount","type":"uint256","indexed":false,"internalType":"uint256"}],"anonymous":false},{"type":"error","name":"ReentrancyGuardReentrantCall","inputs":[]},{"type":"error","name":"TTCEngine__BreaksHealthFactor","inputs":[{"name":"healthFactor","type":"uint256","internalType":"uint256"}]},{"type":"error","name":"TTCEngine__HealthFactorNotImproved","inputs":[]},{"type":"error","name":"TTCEngine__HealthFactorOk","inputs":[]},{"type":"error","name":"TTCEngine__MintFailed","inputs":[]},{"type":"error","name":"TTCEngine__NeedsMoreThanZero","inputs":[]},{"type":"error","name":"TTCEngine__NotAllowedToken","inputs":[]},{"type":"error","name":"TTCEngine__TokenAddressesAndPriceFeedAddressesMustBeSameLength","inputs":[]},{"type":"error","name":"TTCEngine__TransferFailed","inputs":[]}],"bytecode":{"object":"0x60a06040523480156200001157600080fd5b506040516200145938038062001459833981016040819052620000349162000248565b600160005581518351146200005c5760405163e195a48d60e01b815260040160405180910390fd5b60005b835181101562000152578281815181106200007e576200007e620002c4565b6020026020010151600160008684815181106200009f576200009f620002c4565b60200260200101516001600160a01b03166001600160a01b0316815260200190815260200160002060006101000a8154816001600160a01b0302191690836001600160a01b031602179055506004848281518110620001025762000102620002c4565b60209081029190910181015182546001810184556000938452919092200180546001600160a01b0319166001600160a01b03909216919091179055806200014981620002da565b9150506200005f565b506001600160a01b031660805250620003029050565b634e487b7160e01b600052604160045260246000fd5b80516001600160a01b03811681146200019657600080fd5b919050565b600082601f830112620001ad57600080fd5b815160206001600160401b0380831115620001cc57620001cc62000168565b8260051b604051601f19603f83011681018181108482111715620001f457620001f462000168565b6040529384528581018301938381019250878511156200021357600080fd5b83870191505b848210156200023d576200022d826200017e565b8352918301919083019062000219565b979650505050505050565b6000806000606084860312156200025e57600080fd5b83516001600160401b03808211156200027657600080fd5b62000284878388016200019b565b945060208601519150808211156200029b57600080fd5b50620002aa868287016200019b565b925050620002bb604085016200017e565b90509250925092565b634e487b7160e01b600052603260045260246000fd5b600060018201620002fb57634e487b7160e01b600052601160045260246000fd5b5060010190565b60805161111f6200033a60003960008181610307015281816105b30152818161094801528181610c080152610cab015261111f6000f3fe608060405234801561001057600080fd5b50600436106101585760003560e01c80639670c0bc116100c3578063afea2e481161007c578063afea2e48146102dd578063b58eb63f146102f0578063bd4d046814610305578063c660d1121461032b578063f458fdb41461033e578063fe6bcd7c1461035157600080fd5b80639670c0bc146102655780639acd81b3146102915780639f8c5bc1146102a4578063a0912451146102b7578063a5d5db0c146102ca578063a5f352b7146101da57600080fd5b80636c8102c0116101155780636c8102c0146102235780637b510fe81461022a5780637d1a4450146102525780638c1ae6c8146102655780638f1c0d3c146102735780638f63d6671461028657600080fd5b806301f728841461015d5780631c08adda1461018357806326c01303146101c757806331e92b83146101dc5780634ae9b8bc1461021557806359aa9e721461021c575b600080fd5b61017061016b366004610e27565b610364565b6040519081526020015b60405180910390f35b6101af610191366004610e65565b6001600160a01b039081166000908152600160205260409020541690565b6040516001600160a01b03909116815260200161017a565b6101da6101d5366004610e80565b610379565b005b6101706101ea366004610ebc565b6001600160a01b03918216600090815260026020908152604080832093909416825291909152205490565b6032610170565b600a610170565b6064610170565b61023d610238366004610e65565b610471565b6040805192835260208301919091520161017a565b610170610260366004610e65565b610487565b670de0b6b3a7640000610170565b6101da610281366004610eef565b61050f565b6402540be400610170565b6101da61029f366004610f22565b610527565b6101da6102b2366004610f4c565b610570565b6101da6102c5366004610eef565b61061b565b6101da6102d8366004610f22565b61062e565b6101706102eb366004610f22565b6107a7565b6102f8610863565b60405161017a9190610f65565b7f00000000000000000000000000000000000000000000000000000000000000006101af565b610170610339366004610f22565b6108c5565b6101da61034c366004610f4c565b6108d1565b61017061035f366004610e65565b6109ec565b600061037083836109f7565b90505b92915050565b808060000361039b5760405163e609308f60e01b815260040160405180910390fd5b6103a3610a4a565b60006103ae84610a74565b9050670de0b6b3a764000081106103d857604051636a112b6160e01b815260040160405180910390fd5b60006103e486856107a7565b9050600060646103f5600a84610fc8565b6103ff9190610fdf565b9050600061040d8284611001565b905061041b87338a84610a90565b610426868833610bc3565b600061043188610a74565b90508481116104535760405163f118fc2d60e01b815260040160405180910390fd5b61045c33610d15565b505050505061046b6001600055565b50505050565b60008061047d83610d52565b9094909350915050565b6000805b600454811015610509576000600482815481106104aa576104aa611014565b60009182526020808320909101546001600160a01b038781168452600283526040808520919092168085529252909120549091506104e88282610d7c565b6104f29085611001565b9350505080806105019061102a565b91505061048b565b50919050565b61051881610570565b6105228383610527565b505050565b80806000036105495760405163e609308f60e01b815260040160405180910390fd5b610551610a4a565b61055d33338585610a90565b61056633610d15565b6105226001600055565b80806000036105925760405163e609308f60e01b815260040160405180910390fd5b61059d823333610bc3565b604051630852cd8d60e31b8152600481018390527f00000000000000000000000000000000000000000000000000000000000000006001600160a01b0316906342966c6890602401600060405180830381600087803b1580156105ff57600080fd5b505af1158015610613573d6000803e3d6000fd5b505050505050565b610625838361062e565b610522816108d1565b80806000036106505760405163e609308f60e01b815260040160405180910390fd5b6001600160a01b0380841660009081526001602052604090205484911661068a5760405163174c943560e11b815260040160405180910390fd5b610692610a4a565b3360009081526002602090815260408083206001600160a01b0388168452909152812080548592906106c5908490611001565b909155505060405183906001600160a01b0386169033907ff1c0dd7e9b98bbff859029005ef89b127af049cd18df1a8d79f0b7e019911e5690600090a46040516323b872dd60e01b8152336004820152306024820152604481018490526000906001600160a01b038616906323b872dd906064016020604051808303816000875af1158015610758573d6000803e3d6000fd5b505050506040513d601f19601f8201168201806040525081019061077c9190611043565b90508061079c5760405163d4049c3560e01b815260040160405180910390fd5b5061046b6001600055565b6001600160a01b03808316600090815260016020526040808220548151633fabe5a360e21b81529151929316918391839163feaf968c9160048082019260a0929091908290030181865afa158015610803573d6000803e3d6000fd5b505050506040513d601f19601f820116820180604052508101906108279190611086565b5050509150506402540be4008161083e9190610fc8565b610850670de0b6b3a764000086610fc8565b61085a9190610fdf565b95945050505050565b606060048054806020026020016040519081016040528092919081815260200182805480156108bb57602002820191906000526020600020905b81546001600160a01b0316815260019091019060200180831161089d575b5050505050905090565b60006103708383610d7c565b80806000036108f35760405163e609308f60e01b815260040160405180910390fd5b6108fb610a4a565b336000908152600360205260408120805484929061091a908490611001565b90915550610929905033610d15565b6040516340c10f1960e01b8152336004820152602481018390526000907f00000000000000000000000000000000000000000000000000000000000000006001600160a01b0316906340c10f19906044016020604051808303816000875af1158015610999573d6000803e3d6000fd5b505050506040513d601f19601f820116820180604052508101906109bd9190611043565b9050806109dd57604051631810c09560e21b815260040160405180910390fd5b506109e86001600055565b5050565b600061037382610a74565b600082600003610a0a5750600019610373565b60006064610a19603285610fc8565b610a239190610fdf565b905083610a3882670de0b6b3a7640000610fc8565b610a429190610fdf565b949350505050565b600260005403610a6d57604051633ee5aeb560e01b815260040160405180910390fd5b6002600055565b6000806000610a8284610d52565b91509150610a4282826109f7565b6001600160a01b03808516600090815260026020908152604080832093861683529290529081208054839290610ac79084906110d6565b92505081905550816001600160a01b0316836001600160a01b0316856001600160a01b03167fb292db12b8dfa23b760ee5e3bd1d3be184cd8f0eeeacd27ce120d4de4e4721f684604051610b1d91815260200190565b60405180910390a460405163a9059cbb60e01b81526001600160a01b038481166004830152602482018390526000919084169063a9059cbb906044016020604051808303816000875af1158015610b78573d6000803e3d6000fd5b505050506040513d601f19601f82011682018060405250810190610b9c9190611043565b905080610bbc5760405163d4049c3560e01b815260040160405180910390fd5b5050505050565b6001600160a01b0382811660009081526003602052604080822080548790039055516323b872dd60e01b815283831660048201523060248201526044810186905290917f000000000000000000000000000000000000000000000000000000000000000016906323b872dd906064016020604051808303816000875af1158015610c51573d6000803e3d6000fd5b505050506040513d601f19601f82011682018060405250810190610c759190611043565b905080610c955760405163d4049c3560e01b815260040160405180910390fd5b604051630852cd8d60e31b8152600481018590527f00000000000000000000000000000000000000000000000000000000000000006001600160a01b0316906342966c6890602401600060405180830381600087803b158015610cf757600080fd5b505af1158015610d0b573d6000803e3d6000fd5b5050505050505050565b6000610d2082610a74565b9050670de0b6b3a76400008110156109e857604051631378332560e31b81526004810182905260240160405180910390fd5b6001600160a01b03811660009081526003602052604081205490610d7583610487565b9050915091565b6001600160a01b03808316600090815260016020526040808220548151633fabe5a360e21b81529151929316918391839163feaf968c9160048082019260a0929091908290030181865afa158015610dd8573d6000803e3d6000fd5b505050506040513d601f19601f82011682018060405250810190610dfc9190611086565b505050915050670de0b6b3a7640000846402540be40083610e1d9190610fc8565b6108509190610fc8565b60008060408385031215610e3a57600080fd5b50508035926020909101359150565b80356001600160a01b0381168114610e6057600080fd5b919050565b600060208284031215610e7757600080fd5b61037082610e49565b600080600060608486031215610e9557600080fd5b610e9e84610e49565b9250610eac60208501610e49565b9150604084013590509250925092565b60008060408385031215610ecf57600080fd5b610ed883610e49565b9150610ee660208401610e49565b90509250929050565b600080600060608486031215610f0457600080fd5b610f0d84610e49565b95602085013595506040909401359392505050565b60008060408385031215610f3557600080fd5b610f3e83610e49565b946020939093013593505050565b600060208284031215610f5e57600080fd5b5035919050565b6020808252825182820181905260009190848201906040850190845b81811015610fa65783516001600160a01b031683529284019291840191600101610f81565b50909695505050505050565b634e487b7160e01b600052601160045260246000fd5b808202811582820484141761037357610373610fb2565b600082610ffc57634e487b7160e01b600052601260045260246000fd5b500490565b8082018082111561037357610373610fb2565b634e487b7160e01b600052603260045260246000fd5b60006001820161103c5761103c610fb2565b5060010190565b60006020828403121561105557600080fd5b8151801515811461106557600080fd5b9392505050565b805169ffffffffffffffffffff81168114610e6057600080fd5b600080600080600060a0868803121561109e57600080fd5b6110a78661106c565b94506020860151935060408601519250606086015191506110ca6080870161106c565b90509295509295909350565b8181038181111561037357610373610fb256fea26469706673582212207b616081deb371803eee479da0ef9f43a1586387662e14b2dbaef76b93f3a60764736f6c63430008140033","linkReferences":{}},"methodIdentifiers":{"burnTTC(uint256)":"9f8c5bc1","calculateHealthFactor(uint256,uint256)":"01f72884","depositCollateral(address,uint256)":"a5d5db0c","depositCollateralAndMintTTC(address,uint256,uint256)":"a0912451","getAccountCollateralValue(address)":"7d1a4450","getAccountInfo(address)":"7b510fe8","getAdditionalFeedPrecision()":"8f63d667","getCollateralBalanceOfUser(address,address)":"31e92b83","getCollateralTokenPriceFeed(address)":"1c08adda","getCollateralTokens()":"b58eb63f","getHealthFactor()":"a5f352b7","getHealthFactor(address)":"fe6bcd7c","getLiquidationBonus()":"59aa9e72","getLiquidationPrecision()":"6c8102c0","getLiquidationThreshold()":"4ae9b8bc","getMinHealthFactor()":"8c1ae6c8","getPrecision()":"9670c0bc","getTokenAmountFromUsd(address,uint256)":"afea2e48","getTtc()":"bd4d0468","getUsdValue(address,uint256)":"c660d112","liquidate(address,address,uint256)":"26c01303","mintTTC(uint256)":"f458fdb4","redeemCollateral(address,uint256)":"9acd81b3","redeemCollateralForTTC(address,uint256,uint256)":"8f1c0d3c"},"id":36}