{"abi":[{"type":"constructor","inputs":[{"name":"tokenAddresses","type":"address[]","internalType":"address[]"},{"name":"priceFeedAddresses","type":"address[]","internalType":"address[]"},{"name":"ttcAddress","type":"address","internalType":"address"}],"stateMutability":"nonpayable"},{"type":"function","name":"burnTTC","inputs":[{"name":"amount","type":"uint256","internalType":"uint256"}],"outputs":[],"stateMutability":"nonpayable"},{"type":"function","name":"depositCollateral","inputs":[{"name":"tokenCollateralAddress","type":"address","internalType":"address"},{"name":"amountCollateral","type":"uint256","internalType":"uint256"}],"outputs":[],"stateMutability":"nonpayable"},{"type":"function","name":"depositCollateralAndMintTTC","inputs":[{"name":"tokenCollateralAddress","type":"address","internalType":"address"},{"name":"amountCollateral","type":"uint256","internalType":"uint256"},{"name":"amountTTCToMint","type":"uint256","internalType":"uint256"}],"outputs":[],"stateMutability":"nonpayable"},{"type":"function","name":"getAccountCollateralValue","inputs":[{"name":"user","type":"address","internalType":"address"}],"outputs":[{"name":"totalCollateralValueInUSD","type":"uint256","internalType":"uint256"}],"stateMutability":"view"},{"type":"function","name":"getAccountInfo","inputs":[{"name":"user","type":"address","internalType":"address"}],"outputs":[{"name":"totalTtcMinted","type":"uint256","internalType":"uint256"},{"name":"collateralValueInUsd","type":"uint256","internalType":"uint256"}],"stateMutability":"view"},{"type":"function","name":"getHealthFactor","inputs":[],"outputs":[],"stateMutability":"view"},{"type":"function","name":"getTokenAmountFromUsd","inputs":[{"name":"token","type":"address","internalType":"address"},{"name":"usdAmountInWei","type":"uint256","internalType":"uint256"}],"outputs":[{"name":"","type":"uint256","internalType":"uint256"}],"stateMutability":"view"},{"type":"function","name":"getUSDValue","inputs":[{"name":"token","type":"address","internalType":"address"},{"name":"amount","type":"uint256","internalType":"uint256"}],"outputs":[{"name":"","type":"uint256","internalType":"uint256"}],"stateMutability":"view"},{"type":"function","name":"liquidate","inputs":[{"name":"collateral","type":"address","internalType":"address"},{"name":"user","type":"address","internalType":"address"},{"name":"debtToCover","type":"uint256","internalType":"uint256"}],"outputs":[],"stateMutability":"nonpayable"},{"type":"function","name":"mintTTC","inputs":[{"name":"amountTTCToMint","type":"uint256","internalType":"uint256"}],"outputs":[],"stateMutability":"nonpayable"},{"type":"function","name":"redeemCollateral","inputs":[{"name":"tokenCollateralAddress","type":"address","internalType":"address"},{"name":"amountCollateral","type":"uint256","internalType":"uint256"}],"outputs":[],"stateMutability":"nonpayable"},{"type":"function","name":"redeemCollateralForTTC","inputs":[{"name":"tokenCollateralAddress","type":"address","internalType":"address"},{"name":"amountCollateral","type":"uint256","internalType":"uint256"},{"name":"amountTTCToBurn","type":"uint256","internalType":"uint256"}],"outputs":[],"stateMutability":"nonpayable"},{"type":"event","name":"CollateralDeposited","inputs":[{"name":"user","type":"address","indexed":true,"internalType":"address"},{"name":"token","type":"address","indexed":true,"internalType":"address"},{"name":"amount","type":"uint256","indexed":true,"internalType":"uint256"}],"anonymous":false},{"type":"event","name":"CollateralRedeemed","inputs":[{"name":"redeemedFrom","type":"address","indexed":true,"internalType":"address"},{"name":"redeemedTo","type":"address","indexed":true,"internalType":"address"},{"name":"token","type":"address","indexed":true,"internalType":"address"},{"name":"amount","type":"uint256","indexed":false,"internalType":"uint256"}],"anonymous":false},{"type":"error","name":"ReentrancyGuardReentrantCall","inputs":[]},{"type":"error","name":"TTCEngine__BreaksHealthFactor","inputs":[{"name":"healthFactor","type":"uint256","internalType":"uint256"}]},{"type":"error","name":"TTCEngine__HealthFactorNotImproved","inputs":[]},{"type":"error","name":"TTCEngine__HealthFactorOk","inputs":[]},{"type":"error","name":"TTCEngine__MintFailed","inputs":[]},{"type":"error","name":"TTCEngine__NeedsMoreThanZero","inputs":[]},{"type":"error","name":"TTCEngine__NotAllowedToken","inputs":[]},{"type":"error","name":"TTCEngine__TokenAddressesAndPriceFeedAddressesMustBeSameLength","inputs":[]},{"type":"error","name":"TTCEngine__TransferFailed","inputs":[]}],"bytecode":{"object":"0x60a060405234801561001057600080fd5b506040516110f83803806110f883398101604081905261002f91610222565b600160005581518351146100565760405163e195a48d60e01b815260040160405180910390fd5b60005b83518110156101375782818151811061007457610074610295565b60200260200101516001600086848151811061009257610092610295565b60200260200101516001600160a01b03166001600160a01b0316815260200190815260200160002060006101000a8154816001600160a01b0302191690836001600160a01b0316021790555060048482815181106100f2576100f2610295565b60209081029190910181015182546001808201855560009485529290932090920180546001600160a01b0319166001600160a01b039093169290921790915501610059565b506001600160a01b0316608052506102ab9050565b634e487b7160e01b600052604160045260246000fd5b80516001600160a01b038116811461017957600080fd5b919050565b600082601f83011261018f57600080fd5b815160206001600160401b03808311156101ab576101ab61014c565b8260051b604051601f19603f830116810181811084821117156101d0576101d061014c565b60405293845260208187018101949081019250878511156101f057600080fd5b6020870191505b848210156102175761020882610162565b835291830191908301906101f7565b979650505050505050565b60008060006060848603121561023757600080fd5b83516001600160401b038082111561024e57600080fd5b61025a8783880161017e565b9450602086015191508082111561027057600080fd5b5061027d8682870161017e565b92505061028c60408501610162565b90509250925092565b634e487b7160e01b600052603260045260246000fd5b608051610e1d6102db600039600081816103e30152818161070c01528181610a210152610ac40152610e1d6000f3fe608060405234801561001057600080fd5b50600436106100b45760003560e01c8063a091245111610071578063a091245114610155578063a5d5db0c14610168578063a5f352b7146100cc578063afea2e481461017b578063f458fdb41461018e578063fa76dcf2146101a157600080fd5b806326c01303146100b95780637b510fe8146100ce5780637d1a4450146100fb5780638f1c0d3c1461011c5780639acd81b31461012f5780639f8c5bc114610142575b600080fd5b6100cc6100c7366004610bfc565b6101b4565b005b6100e16100dc366004610c38565b6102ac565b604080519283526020830191909152015b60405180910390f35b61010e610109366004610c38565b6102c2565b6040519081526020016100f2565b6100cc61012a366004610c5a565b61033f565b6100cc61013d366004610c8d565b610357565b6100cc610150366004610cb7565b6103a0565b6100cc610163366004610c5a565b61044b565b6100cc610176366004610c8d565b61045e565b61010e610189366004610c8d565b6105d7565b6100cc61019c366004610cb7565b610695565b61010e6101af366004610c8d565b6107b0565b80806000036101d65760405163e609308f60e01b815260040160405180910390fd5b6101de61085b565b60006101e984610885565b9050670de0b6b3a7640000811061021357604051636a112b6160e01b815260040160405180910390fd5b600061021f86856105d7565b905060006064610230600a84610ce6565b61023a9190610cfd565b905060006102488284610d1f565b905061025687338a846108a9565b6102618688336109dc565b600061026c88610885565b905084811161028e5760405163f118fc2d60e01b815260040160405180910390fd5b61029733610b2e565b50505050506102a66001600055565b50505050565b6000806102b883610b6b565b9094909350915050565b6000805b600454811015610339576000600482815481106102e5576102e5610d32565b60009182526020808320909101546001600160a01b0387811684526002835260408085209190921680855292529091205490915061032382826107b0565b61032d9085610d1f565b935050506001016102c6565b50919050565b610348816103a0565b6103528383610357565b505050565b80806000036103795760405163e609308f60e01b815260040160405180910390fd5b61038161085b565b61038d333385856108a9565b61039633610b2e565b6103526001600055565b80806000036103c25760405163e609308f60e01b815260040160405180910390fd5b6103cd8233336109dc565b604051630852cd8d60e31b8152600481018390527f00000000000000000000000000000000000000000000000000000000000000006001600160a01b0316906342966c6890602401600060405180830381600087803b15801561042f57600080fd5b505af1158015610443573d6000803e3d6000fd5b505050505050565b610455838361045e565b61035281610695565b80806000036104805760405163e609308f60e01b815260040160405180910390fd5b6001600160a01b038084166000908152600160205260409020548491166104ba5760405163174c943560e11b815260040160405180910390fd5b6104c261085b565b3360009081526002602090815260408083206001600160a01b0388168452909152812080548592906104f5908490610d1f565b909155505060405183906001600160a01b0386169033907ff1c0dd7e9b98bbff859029005ef89b127af049cd18df1a8d79f0b7e019911e5690600090a46040516323b872dd60e01b8152336004820152306024820152604481018490526000906001600160a01b038616906323b872dd906064016020604051808303816000875af1158015610588573d6000803e3d6000fd5b505050506040513d601f19601f820116820180604052508101906105ac9190610d48565b9050806105cc5760405163d4049c3560e01b815260040160405180910390fd5b506102a66001600055565b6001600160a01b03808316600090815260016020526040808220548151633fabe5a360e21b81529151929316918391839163feaf968c9160048082019260a0929091908290030181865afa158015610633573d6000803e3d6000fd5b505050506040513d601f19601f820116820180604052508101906106579190610d84565b5050509150506402540be4008161066e9190610ce6565b610680670de0b6b3a764000086610ce6565b61068a9190610cfd565b925050505b92915050565b80806000036106b75760405163e609308f60e01b815260040160405180910390fd5b6106bf61085b565b33600090815260036020526040812080548492906106de908490610d1f565b909155506106ed905033610b2e565b6040516340c10f1960e01b8152336004820152602481018390526000907f00000000000000000000000000000000000000000000000000000000000000006001600160a01b0316906340c10f19906044016020604051808303816000875af115801561075d573d6000803e3d6000fd5b505050506040513d601f19601f820116820180604052508101906107819190610d48565b9050806107a157604051631810c09560e21b815260040160405180910390fd5b506107ac6001600055565b5050565b6001600160a01b03808316600090815260016020526040808220548151633fabe5a360e21b81529151929316918391839163feaf968c9160048082019260a0929091908290030181865afa15801561080c573d6000803e3d6000fd5b505050506040513d601f19601f820116820180604052508101906108309190610d84565b505050915050670de0b6b3a7640000846402540be400836108519190610ce6565b6106809190610ce6565b60026000540361087e57604051633ee5aeb560e01b815260040160405180910390fd5b6002600055565b600080600061089384610b6b565b915091506108a18282610b95565b949350505050565b6001600160a01b038085166000908152600260209081526040808320938616835292905290812080548392906108e0908490610dd4565b92505081905550816001600160a01b0316836001600160a01b0316856001600160a01b03167fb292db12b8dfa23b760ee5e3bd1d3be184cd8f0eeeacd27ce120d4de4e4721f68460405161093691815260200190565b60405180910390a460405163a9059cbb60e01b81526001600160a01b038481166004830152602482018390526000919084169063a9059cbb906044016020604051808303816000875af1158015610991573d6000803e3d6000fd5b505050506040513d601f19601f820116820180604052508101906109b59190610d48565b9050806109d55760405163d4049c3560e01b815260040160405180910390fd5b5050505050565b6001600160a01b0382811660009081526003602052604080822080548790039055516323b872dd60e01b815283831660048201523060248201526044810186905290917f000000000000000000000000000000000000000000000000000000000000000016906323b872dd906064016020604051808303816000875af1158015610a6a573d6000803e3d6000fd5b505050506040513d601f19601f82011682018060405250810190610a8e9190610d48565b905080610aae5760405163d4049c3560e01b815260040160405180910390fd5b604051630852cd8d60e31b8152600481018590527f00000000000000000000000000000000000000000000000000000000000000006001600160a01b0316906342966c6890602401600060405180830381600087803b158015610b1057600080fd5b505af1158015610b24573d6000803e3d6000fd5b5050505050505050565b6000610b3982610885565b9050670de0b6b3a76400008110156107ac57604051631378332560e31b81526004810182905260240160405180910390fd5b6001600160a01b03811660009081526003602052604081205490610b8e836102c2565b9050915091565b600082600003610ba8575060001961068f565b60006064610bb7603285610ce6565b610bc19190610cfd565b905083610bd682670de0b6b3a7640000610ce6565b6108a19190610cfd565b80356001600160a01b0381168114610bf757600080fd5b919050565b600080600060608486031215610c1157600080fd5b610c1a84610be0565b9250610c2860208501610be0565b9150604084013590509250925092565b600060208284031215610c4a57600080fd5b610c5382610be0565b9392505050565b600080600060608486031215610c6f57600080fd5b610c7884610be0565b95602085013595506040909401359392505050565b60008060408385031215610ca057600080fd5b610ca983610be0565b946020939093013593505050565b600060208284031215610cc957600080fd5b5035919050565b634e487b7160e01b600052601160045260246000fd5b808202811582820484141761068f5761068f610cd0565b600082610d1a57634e487b7160e01b600052601260045260246000fd5b500490565b8082018082111561068f5761068f610cd0565b634e487b7160e01b600052603260045260246000fd5b600060208284031215610d5a57600080fd5b81518015158114610c5357600080fd5b805169ffffffffffffffffffff81168114610bf757600080fd5b600080600080600060a08688031215610d9c57600080fd5b610da586610d6a565b9450602086015193506040860151925060608601519150610dc860808701610d6a565b90509295509295909350565b8181038181111561068f5761068f610cd056fea26469706673582212209ae69cf53d763ec4bc2e82d08fd6a1fed045b5faac20f971bc98af66fffd558764736f6c63430008190033","linkReferences":{}},"methodIdentifiers":{"burnTTC(uint256)":"9f8c5bc1","depositCollateral(address,uint256)":"a5d5db0c","depositCollateralAndMintTTC(address,uint256,uint256)":"a0912451","getAccountCollateralValue(address)":"7d1a4450","getAccountInfo(address)":"7b510fe8","getHealthFactor()":"a5f352b7","getTokenAmountFromUsd(address,uint256)":"afea2e48","getUSDValue(address,uint256)":"fa76dcf2","liquidate(address,address,uint256)":"26c01303","mintTTC(uint256)":"f458fdb4","redeemCollateral(address,uint256)":"9acd81b3","redeemCollateralForTTC(address,uint256,uint256)":"8f1c0d3c"},"id":36}