{"abi":[{"type":"constructor","inputs":[{"name":"tokenAddresses","type":"address[]","internalType":"address[]"},{"name":"priceFeedAddresses","type":"address[]","internalType":"address[]"},{"name":"ttcAddress","type":"address","internalType":"address"}],"stateMutability":"nonpayable"},{"type":"function","name":"burnTTC","inputs":[{"name":"amount","type":"uint256","internalType":"uint256"}],"outputs":[],"stateMutability":"nonpayable"},{"type":"function","name":"depositCollateral","inputs":[{"name":"tokenCollateralAddress","type":"address","internalType":"address"},{"name":"amountCollateral","type":"uint256","internalType":"uint256"}],"outputs":[],"stateMutability":"nonpayable"},{"type":"function","name":"depositCollateralAndMintTTC","inputs":[{"name":"tokenCollateralAddress","type":"address","internalType":"address"},{"name":"amountCollateral","type":"uint256","internalType":"uint256"},{"name":"amountTTCToMint","type":"uint256","internalType":"uint256"}],"outputs":[],"stateMutability":"nonpayable"},{"type":"function","name":"getAccountCollateralValue","inputs":[{"name":"user","type":"address","internalType":"address"}],"outputs":[{"name":"totalCollateralValueInUSD","type":"uint256","internalType":"uint256"}],"stateMutability":"view"},{"type":"function","name":"getHealthFactor","inputs":[],"outputs":[],"stateMutability":"view"},{"type":"function","name":"getTokenAmountFromUSD","inputs":[{"name":"token","type":"address","internalType":"address"},{"name":"usdAmountInWei","type":"uint256","internalType":"uint256"}],"outputs":[{"name":"","type":"uint256","internalType":"uint256"}],"stateMutability":"view"},{"type":"function","name":"getUSDValue","inputs":[{"name":"token","type":"address","internalType":"address"},{"name":"amount","type":"uint256","internalType":"uint256"}],"outputs":[{"name":"","type":"uint256","internalType":"uint256"}],"stateMutability":"view"},{"type":"function","name":"liquidate","inputs":[{"name":"collateral","type":"address","internalType":"address"},{"name":"user","type":"address","internalType":"address"},{"name":"debtToCover","type":"uint256","internalType":"uint256"}],"outputs":[],"stateMutability":"nonpayable"},{"type":"function","name":"mintTTC","inputs":[{"name":"amountTTCToMint","type":"uint256","internalType":"uint256"}],"outputs":[],"stateMutability":"nonpayable"},{"type":"function","name":"redeemCollateral","inputs":[{"name":"tokenCollateralAddress","type":"address","internalType":"address"},{"name":"amountCollateral","type":"uint256","internalType":"uint256"}],"outputs":[],"stateMutability":"nonpayable"},{"type":"function","name":"redeemCollateralForTTC","inputs":[{"name":"tokenCollateralAddress","type":"address","internalType":"address"},{"name":"amountCollateral","type":"uint256","internalType":"uint256"},{"name":"amountTTCToBurn","type":"uint256","internalType":"uint256"}],"outputs":[],"stateMutability":"nonpayable"},{"type":"event","name":"CollateralDeposited","inputs":[{"name":"user","type":"address","indexed":true,"internalType":"address"},{"name":"token","type":"address","indexed":true,"internalType":"address"},{"name":"amount","type":"uint256","indexed":true,"internalType":"uint256"}],"anonymous":false},{"type":"event","name":"CollateralRedeemed","inputs":[{"name":"redeemedFrom","type":"address","indexed":true,"internalType":"address"},{"name":"redeemedTo","type":"address","indexed":true,"internalType":"address"},{"name":"token","type":"address","indexed":true,"internalType":"address"},{"name":"amount","type":"uint256","indexed":false,"internalType":"uint256"}],"anonymous":false},{"type":"error","name":"ReentrancyGuardReentrantCall","inputs":[]},{"type":"error","name":"TTCEngine__BreaksHealthFactor","inputs":[{"name":"healthFactor","type":"uint256","internalType":"uint256"}]},{"type":"error","name":"TTCEngine__HealthFactorNotImproved","inputs":[]},{"type":"error","name":"TTCEngine__HealthFactorOk","inputs":[]},{"type":"error","name":"TTCEngine__MintFailed","inputs":[]},{"type":"error","name":"TTCEngine__NeedsMoreThanZero","inputs":[]},{"type":"error","name":"TTCEngine__NotAllowedToken","inputs":[]},{"type":"error","name":"TTCEngine__TokenAddressesAndPriceFeedAddressesMustBeSameLength","inputs":[]},{"type":"error","name":"TTCEngine__TransferFailed","inputs":[]}],"bytecode":{"object":"0x60a060405234801561001057600080fd5b506040516110bf3803806110bf83398101604081905261002f91610222565b600160005581518351146100565760405163e195a48d60e01b815260040160405180910390fd5b60005b83518110156101375782818151811061007457610074610295565b60200260200101516001600086848151811061009257610092610295565b60200260200101516001600160a01b03166001600160a01b0316815260200190815260200160002060006101000a8154816001600160a01b0302191690836001600160a01b0316021790555060048482815181106100f2576100f2610295565b60209081029190910181015182546001808201855560009485529290932090920180546001600160a01b0319166001600160a01b039093169290921790915501610059565b506001600160a01b0316608052506102ab9050565b634e487b7160e01b600052604160045260246000fd5b80516001600160a01b038116811461017957600080fd5b919050565b600082601f83011261018f57600080fd5b815160206001600160401b03808311156101ab576101ab61014c565b8260051b604051601f19603f830116810181811084821117156101d0576101d061014c565b60405293845260208187018101949081019250878511156101f057600080fd5b6020870191505b848210156102175761020882610162565b835291830191908301906101f7565b979650505050505050565b60008060006060848603121561023757600080fd5b83516001600160401b038082111561024e57600080fd5b61025a8783880161017e565b9450602086015191508082111561027057600080fd5b5061027d8682870161017e565b92505061028c60408501610162565b90509250925092565b634e487b7160e01b600052603260045260246000fd5b608051610de46102db60003960008181610455015281816106c001528181610a310152610ad60152610de46000f3fe608060405234801561001057600080fd5b50600436106100a95760003560e01c80639f8c5bc1116100715780639f8c5bc114610121578063a091245114610134578063a5d5db0c14610147578063a5f352b7146100c1578063f458fdb41461015a578063fa76dcf21461016d57600080fd5b806326c01303146100ae578063638ca89c146100c35780637d1a4450146100e85780638f1c0d3c146100fb5780639acd81b31461010e575b600080fd5b6100c16100bc366004610bc3565b610180565b005b6100d66100d1366004610bff565b610278565b60405190815260200160405180910390f35b6100d66100f6366004610c29565b610334565b6100c1610109366004610c4b565b6103b1565b6100c161011c366004610bff565b6103c9565b6100c161012f366004610c7e565b610412565b6100c1610142366004610c4b565b6104bd565b6100c1610155366004610bff565b6104d0565b6100c1610168366004610c7e565b610649565b6100d661017b366004610bff565b610764565b80806000036101a25760405163e609308f60e01b815260040160405180910390fd5b6101aa610824565b60006101b58461084e565b9050670de0b6b3a764000081106101df57604051636a112b6160e01b815260040160405180910390fd5b60006101eb8685610278565b9050600060646101fc600a84610cad565b6102069190610cc4565b905060006102148284610ce6565b905061022287338a846108a2565b61022d8688336109d5565b60006102388861084e565b905084811161025a5760405163f118fc2d60e01b815260040160405180910390fd5b61026333610b40565b50505050506102726001600055565b50505050565b6001600160a01b03808316600090815260016020526040808220548151633fabe5a360e21b81529151929316918391839163feaf968c9160048082019260a0929091908290030181865afa1580156102d4573d6000803e3d6000fd5b505050506040513d601f19601f820116820180604052508101906102f89190610d13565b5050509150506402540be4008161030f9190610cad565b610321670de0b6b3a764000086610cad565b61032b9190610cc4565b50505092915050565b6000805b6004548110156103ab5760006004828154811061035757610357610d63565b60009182526020808320909101546001600160a01b038781168452600283526040808520919092168085529252909120549091506103958282610764565b61039f9085610ce6565b93505050600101610338565b50919050565b6103ba81610412565b6103c483836103c9565b505050565b80806000036103eb5760405163e609308f60e01b815260040160405180910390fd5b6103f3610824565b6103ff333385856108a2565b61040833610b40565b6103c46001600055565b80806000036104345760405163e609308f60e01b815260040160405180910390fd5b61043f8233336109d5565b604051630852cd8d60e31b8152600481018390527f00000000000000000000000000000000000000000000000000000000000000006001600160a01b0316906342966c6890602401600060405180830381600087803b1580156104a157600080fd5b505af11580156104b5573d6000803e3d6000fd5b505050505050565b6104c783836104d0565b6103c481610649565b80806000036104f25760405163e609308f60e01b815260040160405180910390fd5b6001600160a01b0380841660009081526001602052604090205484911661052c5760405163174c943560e11b815260040160405180910390fd5b610534610824565b3360009081526002602090815260408083206001600160a01b038816845290915281208054859290610567908490610ce6565b909155505060405183906001600160a01b0386169033907ff1c0dd7e9b98bbff859029005ef89b127af049cd18df1a8d79f0b7e019911e5690600090a46040516323b872dd60e01b8152336004820152306024820152604481018490526000906001600160a01b038616906323b872dd906064016020604051808303816000875af11580156105fa573d6000803e3d6000fd5b505050506040513d601f19601f8201168201806040525081019061061e9190610d79565b90508061063e5760405163d4049c3560e01b815260040160405180910390fd5b506102726001600055565b808060000361066b5760405163e609308f60e01b815260040160405180910390fd5b610673610824565b3360009081526003602052604081208054849290610692908490610ce6565b909155506106a1905033610b40565b6040516340c10f1960e01b8152336004820152602481018390526000907f00000000000000000000000000000000000000000000000000000000000000006001600160a01b0316906340c10f19906044016020604051808303816000875af1158015610711573d6000803e3d6000fd5b505050506040513d601f19601f820116820180604052508101906107359190610d79565b90508061075557604051631810c09560e21b815260040160405180910390fd5b506107606001600055565b5050565b6001600160a01b03808316600090815260016020526040808220548151633fabe5a360e21b81529151929316918391839163feaf968c9160048082019260a0929091908290030181865afa1580156107c0573d6000803e3d6000fd5b505050506040513d601f19601f820116820180604052508101906107e49190610d13565b505050915050670de0b6b3a7640000846402540be400836108059190610cad565b61080f9190610cad565b6108199190610cc4565b925050505b92915050565b60026000540361084757604051633ee5aeb560e01b815260040160405180910390fd5b6002600055565b600080600061085c84610b7d565b909250905060006064610870603284610cad565b61087a9190610cc4565b90508261088f670de0b6b3a764000083610cad565b6108999190610cc4565b95945050505050565b6001600160a01b038085166000908152600260209081526040808320938616835292905290812080548392906108d9908490610d9b565b92505081905550816001600160a01b0316836001600160a01b0316856001600160a01b03167fb292db12b8dfa23b760ee5e3bd1d3be184cd8f0eeeacd27ce120d4de4e4721f68460405161092f91815260200190565b60405180910390a460405163a9059cbb60e01b81526001600160a01b038481166004830152602482018390526000919084169063a9059cbb906044016020604051808303816000875af115801561098a573d6000803e3d6000fd5b505050506040513d601f19601f820116820180604052508101906109ae9190610d79565b9050806109ce5760405163d4049c3560e01b815260040160405180910390fd5b5050505050565b6001600160a01b038216600090815260036020526040812080548592906109fd908490610d9b565b90915550506040516323b872dd60e01b81526001600160a01b038281166004830152306024830152604482018590526000917f0000000000000000000000000000000000000000000000000000000000000000909116906323b872dd906064016020604051808303816000875af1158015610a7c573d6000803e3d6000fd5b505050506040513d601f19601f82011682018060405250810190610aa09190610d79565b905080610ac05760405163d4049c3560e01b815260040160405180910390fd5b604051630852cd8d60e31b8152600481018590527f00000000000000000000000000000000000000000000000000000000000000006001600160a01b0316906342966c6890602401600060405180830381600087803b158015610b2257600080fd5b505af1158015610b36573d6000803e3d6000fd5b5050505050505050565b6000610b4b8261084e565b9050670de0b6b3a764000081101561076057604051631378332560e31b81526004810182905260240160405180910390fd5b6001600160a01b03811660009081526003602052604081205490610ba083610334565b9050915091565b80356001600160a01b0381168114610bbe57600080fd5b919050565b600080600060608486031215610bd857600080fd5b610be184610ba7565b9250610bef60208501610ba7565b9150604084013590509250925092565b60008060408385031215610c1257600080fd5b610c1b83610ba7565b946020939093013593505050565b600060208284031215610c3b57600080fd5b610c4482610ba7565b9392505050565b600080600060608486031215610c6057600080fd5b610c6984610ba7565b95602085013595506040909401359392505050565b600060208284031215610c9057600080fd5b5035919050565b634e487b7160e01b600052601160045260246000fd5b808202811582820484141761081e5761081e610c97565b600082610ce157634e487b7160e01b600052601260045260246000fd5b500490565b8082018082111561081e5761081e610c97565b805169ffffffffffffffffffff81168114610bbe57600080fd5b600080600080600060a08688031215610d2b57600080fd5b610d3486610cf9565b9450602086015193506040860151925060608601519150610d5760808701610cf9565b90509295509295909350565b634e487b7160e01b600052603260045260246000fd5b600060208284031215610d8b57600080fd5b81518015158114610c4457600080fd5b8181038181111561081e5761081e610c9756fea26469706673582212208bacdaaefbc5d6f01590f8509bf0df91e67f5189d694a9a147cae5e93aca15e464736f6c63430008190033","linkReferences":{}},"methodIdentifiers":{"burnTTC(uint256)":"9f8c5bc1","depositCollateral(address,uint256)":"a5d5db0c","depositCollateralAndMintTTC(address,uint256,uint256)":"a0912451","getAccountCollateralValue(address)":"7d1a4450","getHealthFactor()":"a5f352b7","getTokenAmountFromUSD(address,uint256)":"638ca89c","getUSDValue(address,uint256)":"fa76dcf2","liquidate(address,address,uint256)":"26c01303","mintTTC(uint256)":"f458fdb4","redeemCollateral(address,uint256)":"9acd81b3","redeemCollateralForTTC(address,uint256,uint256)":"8f1c0d3c"},"id":36}